:020000040800F2
:10000000B016002061020008690200086B020008B7
:100010006D0200086F020008710200080000000075
:100020000000000000000000000000007302000853
:1000300075020008000000007702000809060008A9
:100040007B0200087B0200087B0200087B0200089C
:100050007B0200087B0200087B0200087B0200088C
:100060007B0200087B0200087B0200087B0200087C
:100070007B0200087B0200087B0200087B0200086C
:100080007B0200087B020008010600080000000057
:100090000000000000000000000000007B020008DB
:1000A0007B0200087B0200087B0200087B0200083C
:1000B0007B020008A90600087B0200087B020008FA
:1000C0007B0200087B0200087B0200087B0200081C
:1000D0007B0200087B020008AD060008000000005B
:1000E0007B0200087B0200087B0200080000000081
:1000F0000000000000000000000000007B0200087B
:10010000000000007B0200087B0200087B02000860
:1001100000000000000000000000000000000000DF
:10012000050600087B0200087B0200087B0200082D
:100130007B0200080000000000000000000000003A
:100140000000000000000000000000007B0200082A
:100150007B0200087B0200087B0200087B0200088B
:100160007B0200087B020008000000000000000085
:10017000000000000000000000000000000000007F
:10018000000000007B0200080000000000000000EA
:100190007B02000800F002F800F052F814A696E87E
:1001A000000CB244B344DA4501D100F049F8BAE892
:1001B0000F000FA696E83000A5EB040504EB060738
:1001C000AAEB0704A7F101074FEA15154FEA34140B
:1001D000A4F10104AC4201D300F032F813F0010F96
:1001E00018BFFB1A43F0010300F001F8DBE71847E2
:1001F000DC890000FC890000103A24BF78C878C16F
:10020000FAD8520724BF30C830C144BF04680C601C
:1002100070470000704700000023002400250026DE
:10022000103A28BF78C1FBD8520728BF30C148BF59
:100230000B6070471FB508F010FB1FBD10B510BD57
:1002400000F0A3F91146FFF7F5FF08F0C9FA00F036
:10025000C1F903B4FFF7F2FF03BC00F0C9F90000D5
:100260000948804709480047FEE7FEE7FEE7FEE74A
:10027000FEE7FEE7FEE7FEE7FEE7FEE70448054986
:10028000054A064B704700009506000895010008D6
:10029000B0100020B0160020B0120020B0120020D4
:1002A00053EA020C00F069802DE9F04B4FF0000694
:1002B000002B1FBFB3FA83F503FA05F424FA05F601
:1002C0005E4012BF1643B2FA82F502FA05F4C5F198
:1002D00020051EBF22FA05FC44EA0C04203556EA2C
:1002E000044C4FEA144418BF641C4FF000084FF050
:1002F0000009904271EB030C39D3002919BFB1FA00
:1003000081F701FA07F6B0FA80F700FA07F6C7F1AD
:1003100020071EBF20FA07FC46EA0C062037B6FB72
:10032000F4FCA7EB0507103F07F01F0BCBF12006ED
:100330002CFA06F60CFA0BFB44BFB3460026202F1E
:10034000A4BF5E464FF0000B5BEA060C08BF4FF0FF
:10035000010B19EB0B0948EB0608ABFB027C06FB13
:1003600002CC0BFB03CCC01B71EB0C01C1E70B46AD
:10037000024641464846BDE8F08B13B5084318BF16
:100380004FF0FF300146AFF30080BDE81C407047DE
:1003900053EA020C23D010B54C1084EA530404D560
:1003A0004042C1F1000138BF491E1B4204D55242F0
:1003B000C3F1000338BF5B1EFFF772FF14F0804FDC
:1003C00004D04042C1F1000138BF491E14F0004F73
:1003D00004D05242C3F1000338BF5B1E10BD13B5F9
:1003E00040424FF0000070EB0104B8BF012001F063
:1003F000004100281CBF6FF000414FF0FF30AFF309
:1004000000801CBD032A40F2308010F0030C00F085
:10041000158011F8013BBCF1020F624498BF11F83E
:1004200001CB00F8013B38BF11F8013BA2F10402F7
:1004300098BF00F801CB38BF00F8013B11F003036F
:1004400000F02580083AC0F0088051F8043B083AD3
:1004500051F804CBA0E80810F5E7121D5CBF51F875
:10046000043B40F8043BAFF30080D20724BF11F8EF
:10047000013B11F801CB48BF11F8012B24BF00F854
:10048000013B00F801CB48BF00F8012B704710B5C5
:10049000203AC0F00B80B1E81850A0E81850B1E83D
:1004A0001850A0E81850203ABFF4F5AF5FEA027C7C
:1004B00024BFB1E81850A0E8185044BF18C918C0AC
:1004C000BDE810405FEA827C24BF51F8043B40F84D
:1004D000043B08BF7047D20728BF31F8023B48BF32
:1004E00011F8012B28BF20F8023B48BF00F8012B70
:1004F00070474FF000020429C0F0128010F0030C86
:1005000000F01B80CCF1040CBCF1020F18BF00F806
:10051000012BA8BF20F8022BA1EB0C0100F00DB8B5
:100520005FEAC17C24BF00F8012B00F8012B48BF13
:1005300000F8012B70474FF0000200B513469446B7
:100540009646203922BFA0E80C50A0E80C50B1F12B
:100550002001BFF4F7AF090728BFA0E80C5048BF3F
:100560000CC05DF804EB890028BF40F8042B08BFDD
:10057000704748BF20F8022B11F0804F18BF00F8D9
:10058000012B7047704770477047754600F02CF894
:10059000AE4605006946534620F00700854618B070
:1005A00020B5FFF76BFEBDE820404FF000064FF08E
:1005B00000074FF000084FF0000BAC46ACE8C00954
:1005C000ACE8C009ACE8C009ACE8C00921F00701FB
:1005D0008D46704710B50446AFF300802046BDE855
:1005E0001040FFF736BE00000048704708000020AA
:1005F00001491820ABBEFEE726000200704700004C
:1006000007F058B807F0A0B804F0FAB843F60400B1
:10061000C4F20200426842F20041C0F2F401C2F3A7
:10062000810280B5DFE802F02402082447F6400189
:10063000C0F27D111CE000BFD0F800C00368026862
:1006400003F03F03C2F3881E5FEA4C2247F64002E4
:10065000C0F27D1258BF0A46B2FBF3F102680223D2
:10066000C2F301420EFB01F103EB4202B1FBF2F1D6
:1006700040F20002C2F200021160406848F67D03B9
:10068000C0F30310C0F60003185C21FA00F01060FC
:1006900080BD00004EF68850CEF20000016841F4A3
:1006A000700101607047000007F032BB07F068BEC0
:1006B00000284FF0010218BF002901D110467047F1
:1006C0000A883AB34A888B889A4223D0CA680AB308
:1006D0008A69FAB1CA8BEAB1B0B50D464021044629
:1006E000FFF729FFD5E900CED5E90223D5E90410AB
:1006F000C4E90223C4E90410C4E900CED5E9060226
:10070000296AC4E9060200222162BDE8B040104611
:10071000704700BF0320704731B14A6ACB6A896ACB
:100720008360416002607047002181604160016028
:10073000704700002DE9F04F95B000284FF00107F9
:1007400018BF002904D1384615B0BDE8F08F00BFAE
:10075000002BF8D007881FB347888688B7421FD080
:10076000C768EFB18769DFB1C78BCFB14CF6CD4712
:10077000CCF6CC47A2FB07675AB1BE0806EB86074A
:10078000D71B06D1B2F5A27F03D8DDE91E579DB96C
:1007900097B150F8381F02274A1C06D1D3E700BF93
:1007A00050F8381F03274A1CCDD00131016038466C
:1007B00015B0BDE8F08F00BF0690049147B13846F0
:1007C0008C211C461546FFF7B6FE04992A4623469F
:1007D000052A4FF000000DF1040C8CE84C000FD2FC
:1007E000012100220A914FF0000B00214FF0000878
:1007F00000254FF0000913924FF0000A149226E1F1
:10080000501F05284FF202000ED200204FF0000BBF
:1008100000254FF0000E12904FF000090F90CDE927
:1008200013000024B5E000BF06F07E0701F1120CB2
:100830004FF0000B1FFA80F800254FF0000E00204B
:100840004FF000090024059712900F90CDE9130096
:100850000E943CF8104C3CF80E6CA7B20D941BEBB8
:100860000704B7B20C9645F1000A1EEB07063CF8E8
:100870000C5C129F0B9547F1000EAFB219EB070508
:100880000795139D3CF80A7C45F1000513950F9DD3
:100890000A97BFB2ED190F953CF8065C149F1FFA3A
:1008A00085F947F1000B14EB09043CF8049C099509
:1008B00008944AF100041FFA89F5109474193CF861
:1008C000025C079F1194ACB24EF100063F191296DC
:1008D0003CF8126C0797139FA6F6FF7647F10007C6
:1008E000B4B23CF808AC3CF8146B13970F9F17EBAD
:1008F000060E4BF10007CDF83CE0149744450E9CE2
:1009000038BF01200D9F0234A7F6FF77BFB24745DD
:100910000C9F38BF0120A7F6FF77BFB247450B9F5A
:1009200038BF0120A7F6FF77BFB247450A9F38BFFF
:100930000120A7F6FF77BFB24745AAF6FF77BFB2FF
:10094000DDF820B038BF01204745099F38BF01209E
:10095000A7F6FF77BFB24745A9F6FF77BFB2DDF82C
:100960001C90DDF844E038BF01204745A5F6FF772D
:10097000BFB238BF01204745A6F6FF77BFB238BFE8
:100980000120474538BF0120059DA542109D7FF4F9
:100990005FAF039ECDE9105EF7074ED004EB8405F0
:1009A00001EB4507B7F802E031F815C01FFA8EF1E8
:1009B000B7F804801BEB010B1099119D1FFA88F406
:1009C00041F100012D191195129DB7F806A045F1CE
:1009D000000512951FFA8AF5109119EB0509ACF67E
:1009E000FF754FF202011FFA85FC8DB213993C8905
:1009F00041F1000113910F99AEF6FF7709190F919C
:100A00001499BFB241F100011491AC45A8F6FF71F1
:100A100038BF0120AF4289B238BF0120A942AAF6EF
:100A2000FF7189B238BF0120A942A4F6FF7189B2D3
:100A300038BF0120A94238BF0120C0B2B0FA80F00F
:100A40004009DDE91185DDE90FA10A9000205FEA88
:100A500050044FEA36071BEB070061413246002382
:100A6000FFF71EFC834618EB070045EB04013246F6
:100A70000023FFF715FC149980461AEB070061412B
:100A800032460023FFF70CFC002847D005464846B5
:100A90001399C0194FF68D19614132460023CDF8E4
:100AA00020B040F6E34BCFF6FF79FFF7F9FB069C49
:100AB00040F6E4422188514301EB5501B1FBF5F3C7
:100AC00040F272620021E0FB03211393A0FB035765
:100AD000104640F6E4420023FFF7E2FBB9EB0501C4
:100AE0007BEB070138BF4FF0FF306288A388801A84
:100AF0004FF4FA519A1A80FB0101D317FFF748FC13
:100B000007460198CDF824800528079705910DD256
:100B10004FF000090027039A4EE200BF0698042711
:100B200050F8381F4A1C7FF440AE0CE61F9ACAB139
:100B300006990027D1E902135FEA57024FEA33080A
:100B40000C91D8F10001A0F105009A46129167EBD3
:100B5000020105281092119116D200214FF00009D0
:100B6000CCE000BF0698039AC088049B1290501EE8
:100B700002F0030503284FF0000680F025814FF0B6
:100B8000000900270020AFE10398002100F07E005B
:100B90000B9004984FF000090A380E90CDF83C8075
:100BA000DDF838B0DDF84C80BBF80A201491002144
:100BB00040F27260E2FB0801A2FB084540F6E44205
:100BC0000023FFF76DFB4FF68D11CFF6FF71091B68
:100BD00040F6E341A9410699C98838BF4FF0FF307C
:100BE0000C9D441AA5FB0401E21705FB0211DDE987
:100BF0001023002948BF1A460F9B129E48BF334658
:100C0000C018514152460023FFF7C2FB48F20003CF
:100C1000CFF6FF731A1A4FF0FF3C7CEB01024FF046
:100C20000002B8BF0122002A04BF6146184647F6F9
:100C3000FF73C21A71F10001A8BF18461F99149AD8
:100C4000C4FB049701EB420148813BF8142F0D913E
:100C5000002140F27260E2FB0801A2FB084840F666
:100C6000E4420023CDF838B0FFF71AFB4FF68D11A0
:100C7000CFF6FF71091B40F6E34171EB08010699BD
:100C8000DDE90F83C988149E38BF4FF0FF30441A46
:100C9000A5FB0401E21705FB02111A46119B00296E
:100CA00048BF1A464346129D48BF2B46C0185141C3
:100CB00052460023FFF76CFB48F20003CFF6FF73A8
:100CC0001A1A4FF0FF3575EB01024FF00002B8BF62
:100CD0000122002A04BF2946184647F6FF73C21AAC
:100CE00071F10001A8BF18460D99023688810B9852
:100CF0003146B042C4FB04977FF452AF039AD00749
:100D0000049800F059810E4601EB810130F8112062
:100D1000139B40F2726000214546A2FB0348E2FBB0
:100D200003011F9ADDF840B00A32149240F6E44203
:100D30000023CDF838A04FF0000AFFF7B1FA4FF6C4
:100D40008D11CFF6FF71091B40F6E34171EB0801ED
:100D50000699C98838BF4FF0FF300C9BA0EB010803
:100D6000A3FB08014FEAE87203FB0211119A002964
:100D700048BF9346129A48BF154640190E9A41EB58
:100D80000B010023FFF704FB48F20004CFF6FF74C9
:100D9000231A4FF0FF3373EB0105B8BF4FF0010A80
:100DA000BAF1000F039A1CBF0B46044647F6FF70CA
:100DB000211A73F10001A8BF04461498C8FB0897D4
:100DC00020F81640F8E000BF1195DDE9128502F029
:100DD0007C006FF0270B002703EB0B0ABAF82820E2
:100DE000149040F272600021139BE2FB0501A2FB0C
:100DF000034940F6E4420023FFF752FA4FF68D1103
:100E0000CFF6FF71091B40F6E34171EB0901139D19
:100E100038BF4FF0FF30A0EB0800BAF83220C0FB1B
:100E2000006740F272600021E2FB0501A2FB054968
:100E300040F6E4420023FFF733FA4FF68D11CFF668
:100E4000FF71091B40F6E34171EB090138BF4FF018
:100E5000FF30A0EB0800BAF83C20C0FB006740F26E
:100E600072600021E2FB0501A2FB054940F6E44265
:100E70000023FFF715FA4FF68D11CFF6FF71091B0E
:100E800040F6E34171EB090138BF4FF0FF30A0EBB2
:100E90000800BAF84620C0FB006740F272600021EB
:100EA000E2FB0501A2FB054940F6E4420023FFF7FF
:100EB000F7F94FF68D11CFF6FF710A1B40F6E341AB
:100EC000049B71EB090238BF4FF0FF30A0EB080024
:100ED000C0FB006714980BF1280B04387FF47CAF3B
:100EE000119DB1460BF12800039A002D64D01A5AC7
:100EF000DDF84CB00021149040F27260E2FB0B016F
:100F0000A2FB0B4840F6E442002340F2726A2E46F0
:100F1000FFF7C6F94FF68D12CFF6FF72111B40F6A0
:100F2000E34171EB080138BF4FF0FF30129B012DF8
:100F3000A0EB0300C0FB00973FF4EDAD04981499BB
:100F400090460844149040890021E0FB0BA1A0FBCF
:100F50000B54504640F6E4429A460023FFF7A0F9AE
:100F6000B8EB050140F6E34B7BEB040138BF4FF0D3
:100F7000FF30A0EB0A00022EC0FB00973FF4CBAD80
:100F80001498139B828A002140F27260E2FB0301F5
:100F9000A2FB034540F6E4420023FFF781F9B8EBDA
:100FA00004017BEB050138BF4FF0FF30A0EB0A00D6
:100FB000C0FB0097AFE500BF484639460023002537
:100FC000FFF76EF9DDF818C0DDF84C904FF0804661
:100FD000431B324671EB060320D2AB0843EA82770B
:100FE000C31B71EB920315D22B0943EA0277C31B93
:100FF00071EB121310D2AB0943EA8267C31B71EB8A
:1010000092134FEA152343EA02654FEA1226DFD313
:10101000920902E0920800E012093D464FF0000EEE
:10102000002655EA020340F088804FF0FF34002E7E
:1010300018BFA646DCE90202DCE905BAAEFB0001F6
:1010400000236546FFF72CF9089A8046149140F278
:1010500072600021E2FB0901A2FB097640F6E4423E
:101060000023FFF71DF94FF68D11CFF6FF71C91B55
:1010700040F6E341B141298A38BF4FF0FF30401AB2
:1010800020EAE070A0FB0B0152460023FFF708F9AD
:10109000074609988A46A0FB090140F6FF72002323
:1010A000FFF7FEF8AA8BA0FB020301FB0231EA8BDB
:1010B0000023FFF7F5F8024647F24840079ECFF6B7
:1010C000FF70059D831B74EB05034FF00003B8BF51
:1010D0000123002B47F247431CBF2C463046C51A5C
:1010E00074F10005A8BF18464FF6FF73984528BF56
:1010F0009846149E002E18BF98469F4228BF1F4650
:10110000029CBAF1000FA57818BF1F4645B3B4F88A
:1011100000A0DDF80CE01F9E0A9D4FF0010927E0BA
:101120005FEA56064FEA3E0EAB0843EA827555EA7F
:1011300092034FEA92023FF478AF1EEB050446EBB0
:101140000203071B71EB0307EAD3001B99415FEA17
:1011500056034FEA3E0717EB050E43EB0206E3E7A3
:10116000DDF80CE01F9E0A9D4FF005094FF0000AC4
:101170009A4228BF1A4600F6B83C002918BF1A4602
:101180000698A388018C41EA090141EA03012DB9BF
:10119000C36B41F00201013338BFC3638285026B28
:1011A000A0F824C0A0F826800785A0F82AA0C18551
:1011B00036B11E9BA6F808E0C6E90023A6F88A10FF
:1011C00050F8341F013240F8042C4A1C4FF000073D
:1011D0007FF4EBAAFFF7B7BAB0B5F8B1012941D057
:1011E00003291DD0022961D1C2690025457042B191
:1011F000016A04460846002190470146204600291E
:1012000078D0018902780029C57051D0042A5BD0BA
:10121000024652F8103F04254FE000BF0120B0BD48
:101220004178002942D1817800293FD141790229B2
:101230003CD10179D1B3C269C2B30446006A00212E
:1012400000259047002800F08F8020782581E570E8
:1012500030B3206900210130217038BF20610320A4
:101260001DE000BF018909BB8178F9B941790229E4
:101270001CD10179D1B1C169C1B10021044600F08E
:1012800093F800281CBF0320B0BD2178012001295C
:10129000607005D021692070013138BF216120764E
:1012A000204600F069F860810020B0BD0220B0BD8A
:1012B00052B1024652F8103F00255C1C05701CBF5D
:1012C0000133136002220276437900240279857982
:1012D000022B38BF0124042B08BF0224002A08BFB8
:1012E000043401F00801002D08BF1034214441816D
:1012F0000020B0BD018941F008020907028103D432
:101300004169013138BF4161C26900214170C1703A
:1013100042B1006A90470146204619B9018941F05F
:10132000080101810178042907D0016904220131F3
:10133000027038BF0161832101764279002501796D
:101340008379022A38BF0125042A08BF0225002913
:1013500008BF04350189002B01F0080108BF1035D2
:10136000294441810320B0BD20460821832200F09A
:10137000E3FA0320B0BD000042790023017990F820
:1013800006C0022A38BF0123042A08BF022300290D
:1013900008BF04330089BCF1000F00F0080008BF4B
:1013A0001033184470470000B0B5C26904465AB102
:1013B0000D46206A002918BF012529469047C8B16B
:1013C0000020E570B0BD00BF61790020A0712279D6
:1013D000022938BF0120042908BF02202189002AE0
:1013E00008BF043001F00801084410306081022079
:1013F000B0BD00BF208940F008010007218103D45F
:101400006069013038BF6061E26900206070E0709F
:101410003AB1206A0021904718B9208940F00800AD
:1014200020812078042807D0206904210130217010
:1014300038BF206183202076617900232079A2794A
:10144000022938BF0123042908BF0223002808BF4E
:1014500004332089002A00F0080008BF1033184424
:1014600060810320B0BD000010B5044600284FF095
:10147000010018BF002901D110BD00BF0868002875
:101480004FF0010008BF10BDD1E90021A071C4E9EF
:101490000721084600219047A0B163790020002170
:1014A000E070227994F806C0022B38BF0121042B8A
:1014B00008BF0221002A08BF0431BCF1000F08BF99
:1014C000103132E0208940F008010007218103D467
:1014D0006069013038BF6061E26900206070E070CF
:1014E0003AB1206A0021904718B9208940F00800DD
:1014F00020812078042807D0206904210130217040
:1015000038BF206183202076627900212079A37979
:10151000022A38BF0121042A08BF0221002808BF7F
:101520000431002B08BF10310320228902F0080289
:101530001143618110BD0000B0B5044661790023FC
:101540000079A279022938BF0123042908BF0223A8
:10155000002808BF04332189002A01F008004FF059
:10156000000508BF10331844608179B1204600217E
:10157000FFF71AFF20786570042806D0206904213F
:10158000013021703CBF2061B0BDB0BD617819B39E
:10159000410735D480B2C10750D1800700F18E8059
:1015A000A078002800F0BE8020460121FFF7FCFE55
:1015B000002818BFB0BD60792178032840F0C680AC
:1015C0000329E2D0206903210130217038BF206156
:1015D00086202076B0BD00BFE26922B1206A0021DA
:1015E0009047002848D0217800200029E070CCD016
:1015F0002169207001313CBF2161B0BDC5E700BF4A
:10160000606904210130218138BF6061E2690020F6
:101610006070E0703AB1206A0021904718B92089C3
:1016200040F0080020812078042865D0206904213A
:101630000130217038BF206182205CE060690121A7
:101640000130218138BF6061E26900206070E07084
:101650003AB1206A0021904718B9208940F008006B
:1016600020812078042847D020690421013021708E
:1016700038BF206180203EE0208940F0080100074B
:10168000218103D46069013038BF6061E2690020C4
:101690006070E0703AB1206A0021904718B9208943
:1016A00040F0080020812078042825D020690421FA
:1016B0000130217038BF206183201CE06069022165
:1016C0000130218138BF6061E26900206070E07004
:1016D0003AB1206A0021904718B9208940F00800EB
:1016E00020812078042807D020690421013021704E
:1016F00038BF206181202076617900232079A2798A
:10170000022938BF0123042908BF0223002808BF8B
:1017100004332089002A00F0080008BF1033184461
:101720006081B0BD20460021FFF73EFE00287FF417
:101730002CAF207801283FF428AF20690121013027
:10174000217038BF206185202076B0BD6FF07B000E
:10175000032908BF6FF0780002293FF416AF216912
:1017600002220131227038BF21612076B0BD000015
:10177000F0B581B0044600284FF0010018BF0029E1
:1017800002D101B0F0BD00BF002AFAD00B78487832
:10179000012B09D1152813D0142829D10889A8B301
:1017A000496841F2044019E0496804235070002060
:1017B00051600121137090701181917201B0F0BDE0
:1017C0000889022807D1887A012804D1CD7A281FF8
:1017D00010F1040F54D8496841F2045010800020E1
:1017E00051600121907011810621917201B0F0BD0C
:1017F00049680423516001215070002011810521A6
:1018000013709070917201B0F0BD00BF41F20240C0
:10181000108001204968907220785160D072607801
:101820001C211073A0785073E07890732079D073E6
:1018300060791074A0795074208900BA000C50822D
:10184000608900BA000C9082A08900BA000CD08296
:10185000E089118100BA000C1083206900BAC2F837
:101860001A00606900BAC2F81E00237E0020907042
:1018700082F82230A2F8230082F8250001B0F0BDE2
:101880000E46204629461746FFF7A6FC3946324643
:10189000DFE800F00232162402205378087001209D
:1018A00052688872CD724B70237800200B73E378F6
:1018B0004A60042288704B730A8101B0F0BD00BFFA
:1018C0005078526804234A600122487000200A813F
:1018D00008220B7088708A7201B0F0BD507852688F
:1018E0000423487000204A6001220B7088700A812E
:1018F00007228A7201B0F0BD507852680423487004
:1019000000204A6001220B7088700A8106228A72C8
:1019100001B0F0BD002808BF704710B5242104466F
:10192000FEF709FE002020711520C0F2E830C4F84F
:101930000A00BDE810407047B0B50446008915465E
:101940004FF6FF72424008431142208103D0606984
:10195000013038BF6061E26900206070E0701AB148
:10196000206A00219047F8B12078042806D0206929
:1019700004210130217038BF206125766179002370
:101980002079A279022938BF0123042908BF022344
:10199000002808BF04332089002A00F0080008BF8F
:1019A000103318446081B0BD208940F008002081C8
:1019B00020780428DBD1E1E7002808BF7047002920
:1019C00018BF01210171FFF7B7BD0000002808BF53
:1019D0007047002918BF01218170FFF7ADBD0000DD
:1019E00061B1B0B591E80C50D1E90445896980E84E
:1019F0000C50C0E904458161B0BD00BF4FF48012B6
:101A0000002182604FF47A72C0E900118281C0F82F
:101A10000E10C0F81210C0F8161041837047000075
:101A2000002814BF002970470A784271D1F80610C7
:101A30004FEA3141C160FFF77FBD000000284FF041
:101A4000000218BF002901D11046704770B548F256
:101A5000203E0129CEF6B85E06D14FF0FF320023BA
:101A6000C90766D18FE000BF21F00102C2F1000C6E
:101A70004FF0FF326FF00103C418A578E4786A4094
:101A80008EEA5205D60708BF55088EEA5502EE07C2
:101A900008BF6A088EEA5205D60708BF55088EEAC5
:101AA0005502EE0708BF6A088EEA5205D60708BF3E
:101AB00055088EEA5502EE0708BF6A088EEA5205FD
:101AC000D60708BF55088EEA5502EE0708BF6A0818
:101AD00062408EEA5204D50708BF54088EEA5402C9
:101AE000E50708BF62088EEA5204D50708BF54080C
:101AF0008EEA5402E50708BF62088EEA5204D50751
:101B000008BF54088EEA5402E50708BF62088EEA4F
:101B10005204D50708BF54088EEA54020233E50781
:101B200008BF62080CEB03040234A5D10233C907D5
:101B300029D0C05C50408EEA5001C20708BF41085E
:101B40008EEA5100CA0708BF48088EEA5001C20752
:101B500008BF41088EEA5100CA0708BF48088EEA4C
:101B60005001C20708BF41088EEA5100CA0708BFEA
:101B700048088EEA5001C20708BF41088EEA5102A8
:101B8000C80708BF4A08D243BDE8704010467047F6
:101B90002DE9F04F83B00028034618BF0123002928
:101BA0000D4618BF01252B4204D11AB1002003B005
:101BB000BDE8F08F002A3DD002F0030693084FF0F5
:101BC000000A3BD00A46AAEB830102F1010800F1AA
:101BD00001096FF0030500960292019009EB0506DA
:101BE00008EB0507F3783479727996F806B0FE7839
:101BF00097F804C097F805E07340BF7943EA0A03F9
:101C00008CEA0406334382EA0E0204351A4387EA5B
:101C10000B034F19043743EA020ADFD10299DDE9C9
:101C200000602B1D6EB9BAFA8AF0400903B0BDE816
:101C3000F08F00BF012003B0BDE8F08F0023002E1D
:101C4000F1D0C75CCA5C012E82EA07024AEA020AA6
:101C5000E9D05F1CC25DCF5D022E82EA07024AEA2C
:101C6000020AE0D09A1C805C895C48404AEA000A7B
:101C7000BAFA8AF0400903B0BDE8F08F002818BF17
:101C8000002901D1704700BF80B511F00303A1F115
:101C9000010E13D04FF0000C0246012B02F801CBCD
:101CA00006D110467146BEF1030F0AD213E000BF01
:101CB000022B80F801C011D102300239BEF1030FAE
:101CC00009D30438002200BF00F8042F0439427001
:101CD0008270C270F8D1BDE88040704700228270E7
:101CE00003300339BEF1030FEBD2F4E7002800F014
:101CF000A7800178002900F0A3804178002904BF63
:101D0000012070478178002904BF02207047C17804
:101D1000002904BF032070470179002904BF042073
:101D200070474179002904BF052070478179002957
:101D300004BF06207047C179002904BF07207047FF
:101D4000017A002904BF08207047417A002904BFA6
:101D500009207047817A002904BF0A207047C17AA0
:101D6000002904BF0B207047017B002904BF0C2011
:101D70007047417B002904BF0D207047817B0029FB
:101D800004BF0E207047C17B002904BF0F2070479D
:101D9000017C002904BF10207047417C002904BF4A
:101DA00011207047817C002904BF12207047C17C3C
:101DB000002904BF13207047017D002904BF1420AF
:101DC0007047417D002904BF15207047817D00299F
:101DD00004BF16207047C17D002904BF172070473B
:101DE000017E002904BF18207047417E002904BFEE
:101DF00019207047817E002904BF1A207047C17ED8
:101E0000002904BF1B207047017F002904BF1C204C
:101E10007047417F002904BF1D207047817F002942
:101E200004BF1E207047C17F002904BF1F207047D8
:101E300090F820102120002908BF2020704700BF03
:101E400000207047F0B581B0044600284FF0010033
:101E500018BF002902D101B0F0BD00BF002AFAD09E
:101E6000002BF8D01078012810D1178950785668C7
:101E7000D7B1587004201870002001215E6098705E
:101E800019810621997201B0F0BD00BF50785168E8
:101E90005870042059601870002001219870198131
:101EA000997201B0F0BD00BF10283BD0022811D0BC
:101EB000012853D104214FF48170198144F65071E7
:101EC00018800020C4F24E715E609870C3F80A104A
:101ED00001B0F0BD20681F46FFF708FF40F2022165
:101EE00039800121B97221790546F97260790021A2
:101EF0003873A079B9707873A068BD74010EB97396
:101F0000010CF973010A39747874216807F1130020
:101F10002A467E60FEF776FA05F109010020398134
:101F200001B0F0BD41F202001880012098720878DB
:101F30005E60D872486800BAD860886800BA1861D4
:101F4000C86800BA58610A69002012BA9A61097D0E
:101F5000987019771321198101B0F0BD58700420D1
:101F6000012118700020198105215E609870997216
:101F700001B0F0BD024600284FF0010018BF002953
:101F800000D17047B0B5086814460D46FFF7AEFEA5
:101F900030B1202808D90820BDE8B040704700BF04
:101FA0000920BDE8B040704795E8070007C400204D
:101FB000BDE8B040704700002DE9F04F81B02DED35
:101FC000088BADF5227D0DF5C4780C46824640465F
:101FD0004FF48071FEF7AFFA01A88421FEF7ABFA47
:101FE000BAF1000F4FF0010018BF002C06D10DF51B
:101FF000227DBDEC088B01B0BDE8F08FBAF8080077
:10200000402840F0B983DAF80400002801F0A083EA
:10201000204624210094FEF78EFABAF90A00BAF994
:102020000C10BAF90E2000EE100A01EE101AB8EEEC
:10203000C00AB8EEC11ABAF9103030EE010A01EE4A
:10204000102AB8EEC11A30EE010A01EE103ABAF9C0
:102050001200B8EEC11A30EE010A01EE100ABAF908
:102060001400B8EEC11A30EE010A01EE100ABAF9F6
:102070001600B8EEC11A30EE010A01EE100ABAF9E4
:102080001800B8EEC11A30EE010A01EE100ABAF9D2
:102090001A00B8EEC11A30EE010A01EE100ABAF9C0
:1020A0001C00B8EEC11A30EE010A01EE100ABAF9AE
:1020B0001E00B8EEC11A30EE010A01EE100ABAF99C
:1020C0002000B8EEC11A30EE010A01EE100ABAF98A
:1020D0002200B8EEC11A30EE010A01EE100ABAF978
:1020E0002400B8EEC11A30EE010A01EE100ABAF966
:1020F0002600B8EEC11A30EE010A01EE100ABAF954
:102100002800B8EEC11A30EE010A01EE100ABAF941
:102110002A00B8EEC11A30EE010A01EE100ABAF92F
:102120002C00B8EEC11A30EE010A01EE100ABAF91D
:102130002E00B8EEC11A30EE010A01EE100ABAF90B
:102140003000B8EEC11A30EE010A01EE100ABAF9F9
:102150003200B8EEC11A30EE010A01EE100ABAF9E7
:102160003400B8EEC11A30EE010A01EE100ABAF9D5
:102170003600B8EEC11A30EE010A01EE100ABAF9C3
:102180003800B8EEC11A30EE010A01EE100ABAF9B1
:102190003A00B8EEC11A30EE010A01EE100ABAF99F
:1021A0003C00B8EEC11A30EE010A01EE100ABAF98D
:1021B0003E00B8EEC11A30EE010A01EE100ABAF97B
:1021C0004000B8EEC11A30EE010A01EE100ABAF969
:1021D0004200B8EEC11A30EE010A01EE100ABAF957
:1021E0004400B8EEC11A30EE010A01EE100ABAF945
:1021F0004600B8EEC11A30EE010A01EE100ABAF933
:102200004800B8EEC11A30EE010A01EE100ABAF920
:102210004A00B8EEC11A30EE010A01EE100ABAF90E
:102220004C00B8EEC11A30EE010A01EE100ABAF9FC
:102230004E00B8EEC11A30EE010A01EE100ABAF9EA
:102240005000B8EEC11A30EE010A01EE100ABAF9D8
:102250005200B8EEC11A30EE010A01EE100ABAF9C6
:102260005400B8EEC11A30EE010A01EE100ABAF9B4
:102270005600B8EEC11A30EE010A01EE100ABAF9A2
:102280005800B8EEC11A30EE010A01EE100ABAF990
:102290005A00B8EEC11A30EE010A01EE100ABAF97E
:1022A0005C00B8EEC11A30EE010A01EE100ABAF96C
:1022B0005E00B8EEC11A30EE010A01EE100ABAF95A
:1022C0006000B8EEC11A30EE010A01EE100ABAF948
:1022D0006200B8EEC11A30EE010A01EE100ABAF936
:1022E0006400B8EEC11A30EE010A01EE100ABAF924
:1022F0006600B8EEC11A30EE010A01EE100ABAF912
:102300006800B8EEC11A30EE010A01EE100ABAF9FF
:102310006A00B8EEC11A30EE010A01EE100ABAF9ED
:102320006C00B8EEC11A30EE010A01EE100ABAF9DB
:102330006E00B8EEC11A30EE010A01EE100ABAF9C9
:102340007000B8EEC11A30EE010A01EE100ABAF9B7
:102350007200B8EEC11A30EE010A01EE100ABAF9A5
:102360007400B8EEC11A30EE010A01EE100ABAF993
:102370007600B8EEC11A30EE010A01EE100ABAF981
:102380007800B8EEC11A30EE010A01EE100ABAF96F
:102390007A00B8EEC11A30EE010A01EE100ABAF95D
:1023A0007C00B8EEC11A30EE010A01EE100ABAF94B
:1023B0007E00B8EEC11A30EE010A01EE100ABAF939
:1023C0008000B8EEC11A30EE010A01EE100ABAF927
:1023D0008200B8EEC11A30EE010A01EE100ABAF915
:1023E0008400B8EEC11A30EE010A01EE100ABAF903
:1023F0008600B8EEC11A30EE010A01EE100ABAF9F1
:102400008800B8EEC11A30EE010A01EE100AB8EEEB
:10241000C11A9FEDC78A30EE010A22A84FF48071DD
:1024200020EE089AFEF787F89FEDC21A08F1100E09
:1024300000216FF0030C0024B0EE410A0AEB040601
:10244000B6F90A3048F6900202EE103AB8EEC22A07
:1024500032EE492A22EE023A33EE011AB0EEC23AC7
:10246000C0F60002B4EE403A5318B6F90E90B6F931
:102470001000B6F91250F1EE10FAC8BFB0EE430AE0
:1024800093ED003AD346E244BAF9102023EE022A33
:1024900008EB010787ED002A02EE102AB8EEC22AE7
:1024A00032EE492A93ED014A22EE023A33EE011A46
:1024B000B0EEC23AB4EE403A24EE022A93ED025A4C
:1024C00093ED036AF1EE10FAC8BFB0EE430A87ED50
:1024D000012A02EE109AB8EEC22A32EE492A22EE02
:1024E000023A33EE011AB0EEC23AB4EE403A25EEAB
:1024F000022AF1EE10FAC8BFB0EE430A87ED022AB5
:1025000002EE100AB8EEC22A32EE492A22EE023A50
:1025100033EE011AB0EEC23AB4EE403A26EE022A89
:102520000EEB0100F1EE10FAC8BFB0EE430A00ED69
:10253000012A02EE105AB8EEC22A32EE492A22EEE1
:10254000023A33EE011AB0EEC23AB4EE403A93EDDD
:10255000044AF1EE10FAC8BFB0EE430AB6F91420EF
:1025600024EE022A80ED002A02EE102AB8EEC22ADA
:1025700032EE492A22EE023A33EE011AB0EEC23AA6
:10258000B4EE403A93ED054AF1EE10FAC8BFB0EE52
:10259000430AB6F9160024EE022A87ED052A02EE58
:1025A000100AB8EEC22A32EE492A22EE023A33EE7F
:1025B000011AB0EEC23AB4EE403A93ED064AF1EE9B
:1025C00010FAC8BFB0EE430AB6F9180024EE022A8A
:1025D00087ED062A02EE100AB8EEC22A32EE492A28
:1025E00022EE023A33EE011AB0EEC23AB4EE403AAD
:1025F00093ED074AF1EE10FA01F12001DA46C8BF67
:10260000B0EE430A24EE022A1034B1F5807F0CF1BB
:10261000100C87ED072A7FF411AF21EE081A002174
:10262000012022AD04E000BF0330402800F0AC8060
:102630008A0689B244D42022514081420FD958F8E9
:10264000212058F8203048F8202048F8213055F84B
:10265000212055F8203045F8202045F821308A0601
:1026600089B249D42022431C514099420FD958F8CD
:10267000212058F8237048F8232048F8217055F895
:10268000212055F8237045F8232045F821708A064B
:1026900089B255D42022831C51409942C4D958F89C
:1026A000212058F8237048F8232048F8217055F865
:1026B000212055F8237045F8232045F82170B3E711
:1026C000202300BF594011EA530F4FEA5302B3D001
:1026D000514011EA930F4FEA9302ADD0514011EAF5
:1026E000D30F4FEAD302A7D051401A0911EA131FA2
:1026F0001346E7D1A0E700BF202300BF594011EAED
:10270000530F4FEA5302AED0514011EA930F4FEAF4
:102710009302A8D0514011EAD30F4FEAD302A2D0BE
:1027200051401A0911EA131F1346E7D19BE700BF76
:102730000000803C00000000F304353FF30435BF87
:10274000202300BF594011EA530F4FEA5302A2D091
:10275000514011EA930F4FEA93029CD0514011EA85
:10276000D30F4FEAD30296D051401A0911EA131F32
:102770001346E7D18FE700BF02200DF5227DBDECA7
:10278000088B01B0BDE8F08F00206FF0010100BFA1
:1027900008EB000393ED002A93ED013A2A1833EE7B
:1027A000026A83ED006A92ED006A92ED017A93ED80
:1027B000024A93ED035A32EE432AD2ED020AD2EDD9
:1027C000031A83ED012A36EE472A82ED012A35EEFF
:1027D000042A83ED022A31EEA02A82ED022A34EE89
:1027E000452A83ED032A30EEE12A82ED032A93ED98
:1027F000052A93ED044A92ED053A92ED045A77EEDC
:10280000062A32EE046A34EE422A83ED052A35EEBA
:10281000432A83ED046A33EE056A82ED052A93EDBF
:10282000062A93ED073A92ED064A92ED075A82ED99
:10283000046A33EE026A32EE432A83ED072A34EE4D
:10284000452A82ED072A93ED082A93ED093A83ED94
:10285000066A35EE046A92ED084A92ED095A82ED55
:10286000066A33EE026A32EE432A83ED092A34EE19
:10287000452A82ED092A93ED0A2A93ED0B3A83ED5E
:10288000086A35EE046A92ED0A4A92ED0B5A82ED1F
:10289000086A33EE026A32EE432A83ED0B2A34EEE5
:1028A000452A82ED0B2A93ED0C2A93ED0D3A83ED28
:1028B0000A6A35EE046A92ED0C4A92ED0D5A82EDE9
:1028C0000A6A33EE026A32EE432A83ED0D2A34EEB1
:1028D000452A82ED0D2A93ED0E2A93ED0F3A83EDF2
:1028E0000C6A35EE046A92ED0E4A92ED0F5A82EDB3
:1028F0000C6A33EE026A32EE432A103183ED0E6A1F
:1029000035EE046A83ED0F2A34EE452A3E2900F1A4
:102910004000C2ED002A82ED0E6A82ED0F2AFFF41C
:1029200037AF00206FF0030108EB000393ED002A9E
:1029300093ED024A2A1834EE026A83ED006A92EDA2
:10294000006AD2ED020A93ED013AD2ED031A32EE9B
:10295000442A93ED035A92ED017A83ED022A36EE72
:10296000602A82ED022A31EE832A83ED012A37EEB6
:10297000452A82ED012A33EE612A83ED032A35EEE2
:10298000072A82ED032A93ED062A93ED044A92ED7D
:10299000063A92ED045A70EE862A32EE046A34EE5C
:1029A000422A83ED062A35EE432A82ED062A93ED6C
:1029B000052A92ED074A83ED046A33EE056A93ED2A
:1029C000073A92ED055A82ED046A34EE026A32EE5D
:1029D000442A83ED072A33EE052A83ED056A35EE96
:1029E000436A82ED072A93ED082A93ED0A3A92EDA5
:1029F000084A92ED0A5A82ED056A33EE026A32EE17
:102A0000432A83ED0A2A34EE452A83ED086A35EE1F
:102A1000046A82ED0A2A93ED092A92ED0B4A93ED9E
:102A20000B3A92ED095A82ED086A34EE026A32EEF0
:102A3000442A83ED0B2A33EE052A83ED096A35EE2D
:102A4000436A82ED0B2A93ED0C2A93ED0E3A92ED38
:102A50000C4A92ED0E5A82ED096A33EE026A32EEAA
:102A6000432A83ED0E2A34EE452A83ED0C6A35EEB7
:102A7000046A82ED0E2A93ED0D2A92ED0F4A93ED32
:102A80000F3A92ED0D5A82ED0C6A34EE026A32EE84
:102A9000442A103183ED0D6A35EE436A83ED0F2A27
:102AA00033EE052A3C2900F14000C2ED002A82EDF8
:102AB0000D6A82ED0F2AFFF437AF1FEDE12A1FEDFB
:102AC000E13A00206FF0070108EB000292ED004AA6
:102AD00092ED047A2B18D3ED000AD3ED043A77EE89
:102AE000044A34EE474A82ED044A30EEE34A83ED6D
:102AF000044A93ED054A92ED057A92ED015AC2ED32
:102B0000004A73EEA04A24EE024A67EE020AD3EDB1
:102B1000011A70EE840A27EE037A37EE044A35EE86
:102B2000207A82ED017A31EE847A31EEC44A92ED58
:102B3000026A35EE605A83ED054A93ED064AD3EDFD
:102B4000022A82ED055A92ED065A83ED017A34EE9F
:102B5000067A36EE444A82ED027A32EEC57A82ED8A
:102B6000064A35EE224A92ED075A93ED076A83ED45
:102B7000064A92ED034A66EE020A25EE035A83EDF9
:102B8000027A93ED037A75EE200A26EE036A35EE9B
:102B9000065A34EE206A34EE604A083182ED036A48
:102BA00037EE056A82ED074A37EE454A382900F1CB
:102BB0002000C3ED004A83ED036A83ED074A83D307
:102BC0009FED054A9FED055A9FED056A9FED057A39
:102BD00000206FF00F0107E015EFC33E5E836C3FEE
:102BE00015EFC3BE5E836CBF08EB00022B18D2ED5D
:102BF000000AD2ED081AD3ED002AD3ED083A71EE9F
:102C0000A04A70EEE10AC2ED080A72EEE30AC3EDD3
:102C1000080AD3ED090AD2ED091AC2ED004A73EE93
:102C2000A24A60EE842A61EE853A60EE850A61EE82
:102C3000861A71EEA00AD2ED011A73EEA22AD3ED24
:102C4000013AC3ED004A71EEA24AC2ED014A73EEA9
:102C5000A04A71EEE21A73EEE00AC2ED091AC3ED62
:102C6000090AD3ED0A0AD2ED0A1A60EE820A61EE71
:102C7000822A61EE831A72EEA02A71EEA00AD2EDCA
:102C8000021AD3ED023AC3ED014A71EEA24AC2ED37
:102C9000024A73EEA04A71EEE21A73EEE00AC2ED48
:102CA0000A1AC3ED0A0AD3ED0B0AD2ED0B1A60EE35
:102CB000852A61EE843A60EE840A61EE871A71EE2D
:102CC000A00AD2ED031A73EEA22AD3ED033AC3EDA4
:102CD000024A71EEA24AC2ED034A73EEA04A73EEB5
:102CE000E00A71EEE21AC3ED0B0AD2ED040AD3ED4D
:102CF0000C2AC2ED0B1AD2ED0C1AD3ED043AC3ED37
:102D0000034A72EEA04A70EEE20AC2ED0C0A71EEBE
:102D1000A30AC2ED044A73EEE14AC3ED0C0AD3EDF7
:102D20000D0AD2ED0D1A60EE852A61EE863A60EE4C
:102D3000860A61EE871A71EEA00AD2ED051A73EECB
:102D4000A22AD3ED053AC3ED044A71EEA24AC2EDC0
:102D5000054A73EEA04A71EEE21A73EEE00AC2ED84
:102D60000D1AC3ED0D0AD2ED0E0AD3ED0E1A60EE68
:102D7000830A61EE822A61EE831A70EEA22A70EE57
:102D8000A10AD2ED061AD3ED063AC3ED054A71EE5B
:102D9000A24AC2ED064A73EEA04A71EEE21A73EE41
:102DA000E00AC2ED0E1AC3ED0E0AD3ED0F0AD2ED02
:102DB0000F1A60EE842A61EE873A60EE870A61EEB0
:102DC000861A71EEA00AD2ED071A73EEA22AD3ED8D
:102DD000073AC3ED064A71EEA24A1031C2ED074A26
:102DE00073EEA04A71EEE21A73EEE00A302900F1A8
:102DF0004000C3ED074AC2ED0F1AC3ED0F0AFFF4FE
:102E0000F3AE48F6901C48F6102EC0F6000CC0F643
:102E1000000EACF12001AEF12000002403460A466A
:102E200008EB04062F1996ED102A97ED103A92ED53
:102E3000084A93ED085A23EE046A22EE057A37EE2B
:102E4000466A96ED007A25EE033A97ED005A22EE97
:102E5000042A32EE032A37EE063A86ED003A35EEC2
:102E6000023A35EE422A92ED0A4A87ED003A93ED96
:102E70000A3A87ED102A97ED112A96ED115A37EE8E
:102E8000466A86ED106A22EE046A25EE037A37EE72
:102E9000466A96ED017A23EE022A97ED013A25EE75
:102EA000044A34EE022A37EE064A86ED014A33EE32
:102EB000024A33EE422A92ED0C5A87ED014A93ED15
:102EC0000C4A87ED112A97ED122A96ED123A37EE49
:102ED000466A86ED116A22EE056A23EE047A37EE21
:102EE000466A96ED027A24EE022A97ED024A23EE14
:102EF000053A33EE022A37EE063A86ED023A34EE10
:102F0000023A34EE422A92ED0E5A87ED023A93EDE0
:102F10000E3A87ED122A97ED132A96ED134A37EEF3
:102F2000466A86ED126A22EE056A24EE037A23EEE3
:102F3000022A96ED033A37EE466A24EE054A97EDEB
:102F4000035A34EE022A33EE064A103486ED034A61
:102F500035EE024A33EE463A35EE422A203320322D
:102F6000402C87ED034A86ED133A87ED132A7FF450
:102F700057AF002408EB04022B1992ED302A93ED91
:102F8000303A91ED084A90ED085A23EE046A22EE99
:102F9000057A37EE466A92ED207A25EE033A93EDF4
:102FA000205A22EE042A32EE032A37EE063A82ED48
:102FB000203A35EE023A35EE422A91ED0A4A83ED87
:102FC000203A90ED0A3A83ED302A93ED312A92EDC2
:102FD000315A37EE466A82ED306A22EE046A25EEF7
:102FE000037A37EE466A92ED217A23EE022A93EDB8
:102FF000213A25EE044A34EE022A37EE064A82EDE3
:10300000214A33EE024A33EE422A91ED0C5A83ED07
:10301000214A90ED0C4A83ED312A93ED322A92ED4C
:10302000323A37EE466A82ED316A22EE056A23EEC5
:10303000047A37EE466A92ED227A24EE022A93ED64
:10304000224A23EE053A33EE022A37EE063A82EDA3
:10305000223A34EE023A34EE422A91ED0E5A83EDD2
:10306000223A90ED0E3A83ED322A93ED332A92ED17
:10307000334A37EE466A82ED326A22EE056A24EE62
:10308000037A23EE022A92ED233A37EE466A24EEC3
:10309000054A93ED235A34EE022A33EE064A1034E1
:1030A00082ED234A35EE024A33EE463A35EE422AA5
:1030B00020302031402C83ED234A82ED333A83EDDA
:1030C000332A7FF457AF00220EEB02030CEB02040D
:1030D00008EB0201A81891ED202A90ED203A94ED1A
:1030E000004A93ED005A23EE046A22EE057A37EE89
:1030F000466A91ED007A25EE033A90ED005A22EEF1
:10310000042A32EE032A37EE063A81ED003A35EE14
:10311000023A35EE422A94ED014A80ED003A93EDF1
:10312000013A80ED202A90ED212A91ED215A37EEC7
:10313000466A81ED206A22EE046A25EE037A37EEB4
:10314000466A91ED017A23EE022A90ED013A25EECE
:10315000044A34EE022A37EE064A81ED014A33EE84
:10316000024A33EE422A94ED025A80ED014A93ED71
:10317000024A80ED212A90ED222A91ED223A37EE83
:10318000466A81ED216A22EE056A23EE047A37EE63
:10319000466A91ED027A24EE022A90ED024A23EE6D
:1031A000053A33EE022A37EE063A81ED023A34EE62
:1031B000023A34EE422A94ED035A80ED023A93ED3E
:1031C000033A80ED222A90ED232A91ED234A37EE2F
:1031D000466A81ED226A22EE056A24EE037A23EE26
:1031E000022A91ED033A37EE466A24EE054A90ED45
:1031F000035A34EE022A33EE064A103281ED034AB6
:1032000035EE024A33EE463A35EE422A802A80ED08
:10321000034A81ED233A80ED232A7FF455AF9DEDDB
:10322000222A9DED626A9DED233A22EE022A9DED4F
:10323000637A26EE066A36EE022A9DED244ADDED1B
:10324000640A8DED012A23EE032A27EE073A33EEB6
:10325000022A9DED255ADDED651A8DED022A24EE38
:10326000042A20EEA03A33EE022A8DED032A25EE41
:10327000052A21EEA13A33EE022A8DED042A9DEDB6
:10328000262A9DED663A22EE022A23EE033A33EE19
:10329000022A8DED052A9DED272A9DED673A22EE43
:1032A000022A23EE033A33EE022A8DED062A9DED23
:1032B000282A9DED686A9DED293A22EE022A9DEDAD
:1032C000697A26EE066A36EE022A9DED2A4ADDED7F
:1032D0006A0A8DED072A23EE032A27EE073A33EE1A
:1032E000022A9DED2B5ADDED6B1A8DED082A24EE96
:1032F000042A20EEA03A33EE022A8DED092A25EEAB
:10330000052A21EEA13A33EE022A8DED0A2A9DED1F
:103310002C2A9DED6C3A22EE022A23EE033A33EE7C
:10332000022A8DED0B2A9DED2D2A9DED6D3A22EEA0
:10333000022A23EE033A33EE022A8DED0C2A9DED8C
:103340002E2A9DED6E3A22EE022A23EE033A33EE48
:10335000022A8DED0D2A9DED2F2A9DED6F3A22EE6A
:10336000022A23EE033A33EE022A8DED0E2A9DED5A
:10337000302A9DED703A22EE022A23EE033A33EE14
:10338000022A8DED0F2A9DED312A9DED713A22EE34
:10339000022A23EE033A33EE022A8DED102A9DED28
:1033A000322A9DED723A22EE022A23EE033A33EEE0
:1033B000022A8DED112A9DED332A9DED733A22EEFE
:1033C000022A23EE033A33EE022A8DED122A9DEDF6
:1033D000342A9DED743A22EE022A23EE033A33EEAC
:1033E000022A8DED132A9DED352A9DED753A22EEC8
:1033F000022A23EE033A33EE022A8DED142A9DEDC4
:10340000362A9DED763A22EE022A23EE033A33EE77
:10341000022A8DED152A9DED372A9DED773A22EE91
:10342000022A23EE033A33EE022A8DED162A9DED91
:10343000382A9DED783A22EE022A23EE033A33EE43
:10344000022A8DED172A9DED392A9DED793A22EE5B
:10345000022A23EE033A33EE022A8DED182A9DED5F
:103460003A2A9DED7A3A22EE022A23EE033A33EE0F
:10347000022A8DED192A9DED3B2A9DED7B3A22EE25
:10348000022A23EE033A33EE022A8DED1A2A9DED2D
:103490003C2A9DED7C3A22EE022A23EE033A33EEDB
:1034A000022A8DED1B2A9DED3D2A9DED7D3A22EEEF
:1034B000022A23EE033A33EE022A8DED1C2A9DEDFB
:1034C0003E2A9DED7E3A22EE022A23EE033A33EEA7
:1034D000022A8DED1D2A9DED3F2A9DED7F3A22EEB9
:1034E000022A23EE033A33EE022A8DED1E2A9DEDC9
:1034F000402A9DED803A22EE022A23EE033A33EE73
:10350000022A8DED1F2A9DED412A9DED813A22EE82
:10351000022A23EE033A33EE022A8DED202A9DED96
:10352000422A9DED823A22EE022A23EE033ADAF88D
:10353000042033EE022A8DED212A02EE102AF8EE45
:10354000420A9FED9D2A01ACDFED9C1ADFED9C2A1B
:10355000009D04F1080000210423B0EE426AB0EEA1
:10356000425AB0EE424AB0EE423AB0EE427A2EE013
:10357000B4EE62BAF1EE10FACCBF33EE0A3A34EE92
:103580000A4A63EEA43A32EE242A33EE866A65EEE6
:10359000A63A32EE262A33EE866A67EE893AB4EE10
:1035A00047AA32EE092A33EE866A6BEE0A3AF1EE4A
:1035B00010FAC4BFB0EE4A7A1946043332EE0A2A32
:1035C00033EE866A242B00F1100000F08580DF1EA8
:1035D000BEB203EE906AF8EE633A63EEA03A63EE91
:1035E000883A50ED014AF4EE613AF1EE10FA09DD45
:1035F000F4EE623AF1EE10FACCBF33EE243A34EE38
:10360000244A01E035EE245AF4EE474AF1EE10FA6E
:10361000C4BFB0EE647A39469F1EBEB205EE906A12
:10362000F8EE655A65EEA05A65EE885AF4EE615AD6
:10363000D0ED006AF1EE10FA0ADDF4EE625AF1EE16
:1036400010FACCBF33EE263A34EE264A02E000BF31
:1036500035EE265AF4EE476AF1EE10FAC4BFB0EE2A
:10366000667A39465F1EBEB207EE906AF8EE677A58
:1036700067EEA07A67EE887AF4EE617A90ED019AAF
:10368000F1EE10FA0ADDF4EE627AF1EE10FACCBF38
:1036900033EE093A34EE094A02E000BF35EE095A2A
:1036A000B4EE479AF1EE10FAC4BFB0EE497A39464B
:1036B0009FB20AEE107AB8EE4AAA2AEE20AA2AEEA3
:1036C00008BAB4EE61BA90ED02AAF1EE10FA3FF733
:1036D0004FAF35EE0A5A54E7F1EEC11ADAF800306E
:1036E0004FF6FF702B6082424FF6FF73B5EE401A23
:1036F00038BF1346F1EE10FAAB8031DDDFEDBC2AA6
:103700004FF6FF72F4EE621AF1EE10FA07DAF6EEF7
:10371000002A71EEA22AFDEEE22A12EE902AB5EE00
:10372000400AF1EE10FAEA8021DDDFEDB12A4FF612
:10373000FF72B4EE620AF1EE10FA19DAF6EE002A20
:1037400070EE222AFDEEE22A12EE902A10E000BF6F
:1037500003200DF5227DBDEC088B01B0BDE8F08F94
:103760000022B5EE400AF1EE10FAEA80DDDC00221C
:10377000B5EE401AF1EE10FA2A8125DD80EE210A1D
:103780009FED9C1A20EE010AB5EE400AF1EE10FA08
:1037900018DD9FED971A4FF6FF72B4EE410AF1EE75
:1037A00010FA10DAB6EE001A30EE010ABDEEC00AC9
:1037B00010EE102A07E000BF000000000000FA43EE
:1037C0000080BB4400226A819FED8B0ABAF88A20F0
:1037D000B4EE402AF1EE10FAEA8357DD8AB20239DC
:1037E00000EE102A89B21D29B8EE401A30D804EB39
:1037F0008201D1ED002A11ED010AD1ED011A72EE1C
:10380000A22A70EE622A72EEA12ADFED7C3AF0EE77
:10381000E24AF4EE634AF1EE10FA19DD70EE611A35
:10382000B6EE000A61EE801AC1EEA21AF4EE401A5A
:10383000F1EE10FA0ADCFEEE002AF4EE621AB0EEA7
:10384000610AF1EE10FAB8BFB0EE620A30EE011A6A
:103850009FED6B0A21EE201A21EE001A21EE081AC4
:10386000B5EE401AF1EE10FA12DDDFED660AB4EEA5
:10387000601AF1EE10FA0DDAF6EE000A31EE201AB7
:10388000BCEEC11A11EE101A06E000BF1720A6E028
:10389000002101E04FF0FF31B1EEC71A9FED5A7AD7
:1038A000E96031EE011A81EE071AB5EE401AF1EE29
:1038B00010FA11DD9FED4E7A4FF6FF71B4EE471A04
:1038C000F1EE10FA09DAB6EE007A31EE071ABDEE23
:1038D000C11A11EE101A00E0002186EE021A2982A8
:1038E00021EE000AB5EE400AF1EE10FA10DD9FED70
:1038F000451AB4EE410AF1EE10FA0BDAB6EE001AF0
:1039000030EE010ABCEEC00A10EE101A04E000BF4F
:10391000002101E04FF0FF3185EE021A9FED350ADC
:10392000696121EE001AB5EE401AF1EE10FA11DDD0
:103930009FED2F5A4FF6FF71B4EE451AF1EE10FAD3
:1039400009DAB6EE005A31EE051ABDEEC11A11EED3
:10395000101A00E0002184EE021A298321EE001AD9
:10396000B5EE401AF1EE10FA12DD9FED214A4FF646
:10397000FF72B4EE441AF1EE10FA0ADAB6EE004A1B
:1039800031EE041ABDEEC11A11EE102A01E000BF9B
:1039900000221144B1F57A7F6A8303D8C1F57A70A9
:1039A0001BE000BF83EE021A21EE000AB5EE400ACA
:1039B000F1EE10FA10DD9FED0E1AB4EE410AF1EEB1
:1039C00010FA0ADAB6EE001A30EE010ABDEEC00AAD
:1039D00010EE100A01E000BF0020A8830F20288409
:1039E00000200DF5227DBDEC088B01B0BDE8F08F05
:1039F00000FF7F4700007A445F708930CCBC8C2B7D
:103A00000000C8420000804F0000FC4100284FF039
:103A1000010C18BF002901D160467047002BFBD074
:103A2000202A3CBF0220704701220A8002684FF022
:103A3000000C12BAC1F80220828812BA120CCA8095
:103A4000C28812BA120C0A81028912BA120C4A8177
:103A5000428912BA120C8A81C26812BAC1F80E20C9
:103A6000028A12BA120C4A82426912BA4A61028B65
:103A700012BA120C0A83428B12BA120C4A83828B3E
:103A800012BA120C8A83C08B00BA000CC8832020A3
:103A900018806046704700008446002A4FF00100FD
:103AA00018BF002B00D170475078112810D1107822
:103AB000012819D1108918B350680121586041F2CA
:103AC000041018800020987019810621997270479F
:103AD00051685870042059601870002001219870B6
:103AE000198105219972704750680121586041F28F
:103AF000041018800020987019819972704700BFD7
:103B0000BCF1000F18BF00290CD15068012158608A
:103B100041F20410188000201981082198709972D0
:103B2000704700BFB0B541F2021018805568002000
:103B300003F1080E1C46987003F10A0160464FF429
:103B4000807273466560BDE8B040FFF75FBF00005C
:103B5000F0B5B9B00D46497814461339312900F251
:103B60004D800646DFE801F01A4A5C4A4A4A4A4A52
:103B70004A4A4A4A4A4A4A4A4A4A4A4A4A4A4A4AA5
:103B80004A4A4A4A4A4A4A4A4A4A4A4A4A4A4A4A95
:103B90004A4A4A4A4A4A2674883C00BF06F5C0771A
:103BA00038462946224601F055F9002800F0A08049
:103BB00039B0F0BD6F4638467C21FCF7BCFC298942
:103BC00005F10A003A4600F0EBFE00285FD106F549
:103BD0002E70694600F02AFE002858D170E000BF20
:103BE000298905F10A0000F091FE00284FD106F561
:103BF0002E7000F01BFD002849D161E020464FF4F3
:103C00008671FCF798FC0420207068786070686802
:103C10006060012020810520A072002039B0F0BD35
:103C200006F5F477384629462246FDF7A1FD0446FD
:103C300068463946FDF7D4FE9DF801109DF8000056
:103C400000294BD1042849D0204639B0F0BD00BF2F
:103C50006F463846C821FCF76EFC298905F10A0039
:103C60003A4600F063FE90B906F52E70694601F001
:103C700043F860B924E000BF298905F10A0000F08B
:103C800045FE20B906F52E7000F020FFC0B10528D2
:103C900004D0082804D10B264FE000BF0C264CE0CE
:103CA00000F0F701032901D1062646E00238C0B230
:103CB000082841D848F67401C0F600010E5C3CE0CB
:103CC00020464FF48671FCF736FC0220207068789D
:103CD000607068686060002039B0F0BD811E032903
:103CE00028BF012086F87C03204639B0F0BD00BF14
:103CF000207802287FF491AF6C462046394601F0C7
:103D000053FE06F5F47528462146FDF789FE32A8D4
:103D10002946FDF765FE9DF8C9109DF8C80011B948
:103D200004287FF47AAF811E032928BF012086F87A
:103D30007C03002039B0F0BD072620464FF4867181
:103D4000FCF7F9FB04202070687860706868A67240
:103D5000606001202081002039B0F0BD70B588B0CE
:103D6000A0B100F5F47604463046FDF77DFB05462C
:103D700001A83146FDF734FE9DF805109DF80400BA
:103D800041B9042806D0284608B070BD0125284650
:103D900008B070BD811E032928BF012084F87C0370
:103DA000284608B070BD0000002818BF002901D1C6
:103DB00001207047002AFBD00B68002BF8D04B681D
:103DC000002BF5D08B68002BF2D070B50E464FF467
:103DD000667104461546FCF7AEFB96E80F0004F545
:103DE0005B7C8CE80F00012084F87C03204602F005
:103DF00047FA04F59E7004F07DFC04F5C07001F0F4
:103E0000C3FD04F5F470FDF785FD04F5047002F0C0
:103E100077FF04F52E7000F035FF002204F598704E
:103E2000294684F86823BDE87040FEF7A3B8000077
:103E30002DE9F04FADF29C4D0DF51E7B88460446F2
:103E4000002558464FF486718DF88753FCF773FBB5
:103E50005BAF38464FF48671FCF76DFB002C5A952A
:103E6000CDE95855CDE95655559500F01F8304F519
:103E70000470B8F1000F08BF4FF040080D9004F532
:103E80002E700B900BF10A000C9004F5F4700A9060
:103E900004F5C070099004F5AC70089004F59E70AC
:103EA0000F9055A8411C1530069004F5987007F145
:103EB000080907F10A0605900DF2873A002000274D
:103EC00007910E900CE000BFD4F88803013038BF92
:103ED000C4F88803012084F89003474580F0B2823B
:103EE000D4F86C23D4F8780351469047002800F0AA
:103EF000A9829DF8871320465A46013702F0CEF971
:103F00000028EAD0C0B20128DED1D4F88003CDE980
:103F10000369013038BFC4F88003D4E9DD10884755
:103F20009DF87992A9F13001102939D80646DFE8C9
:103F300011F0110097008900C100370037003700E9
:103F400037003700370037003700370037003700B9
:103F50003700F5005BA84FF48671FCF7ECFA43F2EA
:103F60000200ADF86C019F98BDF880225C90039828
:103F7000334600904FF480700190DDE90C10049EF0
:103F8000029602F087FB0E9E042800F2E3804FF0B9
:103F90000A09DFE810F0FB01DF008B00DB00E10025
:103FA00094F86803002800F0EB80A9F11100332891
:103FB00000F25081DFE810F09001980134007401A4
:103FC00034004E014E014E014E014E014E014E0194
:103FD0004E014E014E016E014E014E014E014E0149
:103FE0004E014E014E014E014E014E014E014E0159
:103FF0004E014E014E014E014E014E014E014E0149
:104000004E014E014E014E014E014E014E014E0138
:104010004E014E014E014E01340034003400340094
:104020005BA84FF48671FCF786FA04208DF86C01CA
:104030009F988DF86D915C900120ADF87401092076
:1040400080E000BFBDF88002002800F0AF805BA8D0
:104050004FF48671FCF76FFA9F9843F204216AE0EF
:104060005BA84FF48671FCF766FA43F20210ADF8D4
:104070006C019F98BDF880225C90039833460090B5
:104080004FF480700190DDE90C10049E029602F05E
:1040900005FC0E9E04285DD84FF00A09DFE810F0F9
:1040A00076015A00060056005C0000BF4FF006097A
:1040B00052E000BFB146E2AE30464FF48671FCF7E5
:1040C0003AFA12A84FF48671FCF735FA0D98594662
:1040D0004A46334610AECDE91055009602F0EAFE8E
:1040E0000E9E042800F23B814FF00A09DFE810F031
:1040F000060037012E013201390100BF9DF88913F6
:104100000D9802F01DFD002800F0F4802046E2A981
:1041100012AAFFF71DFD064600E100BFBDF88002B0
:10412000002800F077805BA84FF48671FCF703FA53
:104130009F9844F204015C900120ADF874010620C0
:10414000ADF86C110E9E8DF876011FE14FF0090954
:1041500002E000BF4FF007095BA84FF48671FCF73F
:10416000EAF904208DF86C019DF879029F998DF889
:104170006D0101205C91ADF874018DF8769105E137
:10418000A9F111000F2800F26580DFE800F0A5AD6D
:10419000098909636363636363636363638300BF64
:1041A000204659465BAAFFF7D3FCEEE03246E2AE6A
:1041B0000D99304602F036FE0DF5B67948464FF4BB
:1041C0008671FCF7B8F902209F998DF86C019DF873
:1041D00079025C910399049B8DF86D0130464FF490
:1041E000807202F0C7FC98B148464FF48671FCF724
:1041F000A2F904208DF86C019DF879029F998DF841
:104200006D010120ADF8740107205C918DF87601F5
:104210000E9EBBE0E2AE0B99304600F03BFD0DF583
:10422000B67948464FF48671FCF785F902209F99CC
:104230008DF86C019DF879025C910399049B8DF8CF
:104240006D0130464FF4807200F006FC0028CBD19F
:10425000DEE700BFD4E9DD1094F87C93884704F5CD
:1042600060730DF5AC7E0ECB8EE80F00069894F8C7
:1042700090C3079E05808570059855A95A465BAB8B
:104280008DF854913580B5708DF868C1FDF7DAFD71
:104290007BE000BF0F9859465BAA04F0C3F974E0B5
:1042A0000A9E594630465BAAFDF762FA8146E2A8AB
:1042B0003146FDF795FB9DF889139DF8880309B9F0
:1042C000042807D1811E03294FF0010128BF0846A9
:1042D00084F87C034E4659E094F87C1108985A46BD
:1042E0005BABFFF7D9FB50E0099859465BAA00F099
:1042F000B1FD4AE012A84FF48671FCF71CF90420C6
:104300008DF848009DF88903E3998DF84900012054
:10431000ADF85000092013918DF85200002E304660
:1043200033D1DDE910230D9859465BAE12ADCDE9CE
:104330000056002502F0B4FE04280FD800264FF0E6
:104340000A09DFE800F0220B03070E004FF0060910
:1043500007E000BF4FF0090903E000BF00264FF05F
:1043600007095BA84FF48671FCF7E5F89DF8790220
:1043700004218DF86D019F988DF86C115C900120DF
:10438000ADF874018DF87691304606460E964EB122
:10439000D4F88803013038BFC4F888030720DDE96A
:1043A000036998E59DF86C010DF5B67904280DD1E7
:1043B000D4F88803013038BFC4F88803BDF874010D
:1043C000012804BF9DF8760184F89003E2AE3046E0
:1043D0004FF48871FCF7AFF8484631464FF48872C5
:1043E00012AB129502F05EF850B1D4F88803DDE903
:1043F0000369013038BFC4F8880307206BE500BFAC
:10440000D4F87033D4F87803129A31469847129949
:10441000DDE90369884207D1D4F88403013038BF4D
:10442000C4F8840359E500BFD4F88C03013038BFC9
:10443000C4F88C03D4F88803013038BFC4F888036B
:10444000082048E594F87C130F985BAA04F062F901
:1044500060B3E2AD28464FF48871FCF76CF8002099
:1044600012905BA812AB29464FF4887202F01AF83A
:1044700060B1D4F88803013038BFC4F8880307203E
:1044800084F890030DF29C4DBDE8F08FD4F87033A2
:10449000D4F87803129AE2A998471299884209D170
:1044A000D4F88403013038BFC4F884030DF29C4D66
:1044B000BDE8F08FD4F88C03013038BFC4F88C030A
:1044C000D4F88803013038BFC4F88803082084F882
:1044D00090030DF29C4DBDE8F08F0000002808BF4E
:1044E0007047002918BF012180F868137047000049
:1044F000002808BF7047B0B588B000F5F4750446D1
:104500002846FDF759FA01A82946FDF769FA9DF8F2
:1045100005109DF8040029B9042803D008B0BDE8AF
:10452000B0407047811E032928BF012084F87C0316
:1045300008B0BDE8B0407047002808BF7047B0B56C
:1045400088B000F5F47504462846FDF73FFA01A847
:104550002946FDF745FA9DF805109DF8040029B994
:10456000042803D008B0BDE8B0407047811E03297D
:1045700028BF012084F87C0308B0BDE8B040704734
:10458000002814BF00F59E70704704F01BB90000AE
:10459000002818BF002901D1704700BFF0B591B0C5
:1045A000044691E88D00D1E9045604F5AC7CC4E9D9
:1045B0005A568CE88D00D1E906030A6A04F5C075E5
:1045C000C4E95C0301272846C4F8782184F87C718B
:1045D00000F0EAFC01AE3046294601F0E5F904F5A9
:1045E000F47528463146FDF71BFA0AA82946FDF75F
:1045F000F7F99DF829109DF8280029B9042803D05F
:1046000011B0BDE8F0407047811E032938BF07464E
:1046100084F87C7311B0BDE8F0407047002814BFE7
:1046200000F59E70704704F0BFB80000002804BF7A
:104630000120704790F82D1002291CBF04207047FC
:1046400070B582B0D0F800C04469816B828FC38F8F
:10465000B0F84050064660460095A04730B10320B0
:10466000A6F82D00002002B070BD00BF40F2067019
:10467000A6F82D00092002B070BD0000F0B597B07B
:104680000D460646002402A838211194FBF753FF7B
:1046900040F26807C2F2000707F12C01304603F030
:1046A000FDFB70B33046294603F0C0FD4FF0000417
:1046B00038B348F27D40C0F600007C60139048F2A9
:1046C000C140C0F60000149044F6DD40C0F6000082
:1046D000CDE9150448F69020C0F6000010904FF484
:1046E0005060ADF844008DF8464003F099FC1290FC
:1046F00040F29860C2F2000013A910AAFFF754FB21
:1047000010B1204617B0F0BD40F29865C2F2000526
:1047100028460121FFF7E2FE44F6F9000024C0F626
:1047200000003C70CDE9000469462846FFF716FBFF
:104730000028E6D140F29865C2F200052846002123
:10474000FFF7D6FE28460021FFF7F6FE7C7002AC8C
:10475000204602F0CDFF204603F05AF80446002818
:1047600018BF0124204617B0F0BD000070B5B0B0EE
:1047700000200AAC2F90CDE92D0020468C21FBF7BC
:10478000DAFE01A82421FBF7D6FE2DA8214603F06E
:104790009FF901282ADB40F29860C2F200002DA99F
:1047A000FFF73CFF0AA801A9FDF706FCF0B90DF1DF
:1047B000040E40F268009EE81E50C2F20000DDE9DF
:1047C000075681600999C260C0E90961012103614E
:1047D0004461C0F818C0C0F81CE00562417040F2A6
:1047E0009860C2F2000001A9FFF7D2FE40F2986083
:1047F000C2F200004021FFF71BFB30B070BD00008B
:1048000040F26800C2F200004168013102D0416804
:104810000131416080B503F061FA40F29860C2F264
:104820000000BDE88040FFF7ABBE0000B0B50C460D
:1048300000284FF0010118BF002C01D10846B0BD7F
:1048400090F82C1051B1227894F83810FE2A0FD02D
:10485000012A14D140290DD011E000BF0221062207
:10486000012380F82E3080F82D200846B0BD00BF0F
:10487000202904D1616911B1026A914208D903214A
:104880000622022380F82E3080F82D200846B0BD85
:10489000D0E90932A5689A4288BF13469D4217D9CC
:1048A0000546D0E900029047E0B105F1300021460D
:1048B0007C22FBF7ECFD2846002301220021C5F8ED
:1048C000AC3080F82E3080F82D200846B0BD00BFF7
:1048D00005210622032380F82E3080F82D2008467B
:1048E000B0BD00BF062204230621284680F82E30E2
:1048F00080F82D200846B0BD40F26802C2F20002E6
:104900000120002918BF01211170704750B1012901
:104910001EBF0320C0B270470078013818BF0320C3
:10492000C0B270470120C0B27047000000284FF0AD
:10493000010318BF002A01D11846704708292BD35C
:104940000378012B28D170B5B0F805C04FF0FF33C4
:104950009CFA8CFE03EB1E43BF2B4FF0030317D8CA
:10496000072404EB1E44A14212D105461046C8217B
:104970009CFA9CF41646FBF7DEFDD5F80100E91D14
:1049800000BA3060B01D2246B480FBF73BFD002327
:10499000BDE8704018467047032318467047000072
:1049A000034600284FF0010018BF002A00D17047CD
:1049B00035290FD3187801280CD170B5587893F8A1
:1049C0003440FE2808D0012844D1402C1CBF0320CD
:1049D00070BD03E003207047202C3BD104F135006B
:1049E000884237D110467C211D461646FBF7A3FDB1
:1049F00068783070D5F8020000BA7060D5F806000B
:104A000000BAB06030B368892B4600BA000CB081A0
:104A1000A889324600BA000CF081E88900BA000C7F
:104A20003082286900BA7061A0B102F1180003F168
:104A30001401164620221D46FBF7E4FC06F139005E
:104A400005F13501224686F83840FBF7DBFC0020F3
:104A500070BD00BF032070BD00284FF0010C18BFCF
:104A6000002901D160467047002BFBD0222A3CBFB1
:104A70000C20704701220A7002784FF0000C4A7037
:104A800042788A708278CA70426812BA4A60826834
:104A900012BA8A60C26812BACA60026912BA0A619E
:104AA000426912BA4A61826912BA8A61828B12BA69
:104AB000120C8A83C28B12BA120CCA83008C00BA01
:104AC000000C08842220188060467047002804BF2C
:104AD0000120704790F82D1001291CBF0420704759
:104AE000426CD0F8AC10914240F096802DE9F0472E
:104AF0009CB003680022C6681B92CDE91922CDE95B
:104B00001722CDE915220746149214AA1846B04779
:104B1000002800F0878007F1480414AD284621469C
:104B20002022FDF735F8064628462021FDF7A6F895
:104B3000002E00F07F8004A84021FBF7FCFC97F8D2
:104B4000301097F868E03B46FE297BD001297CD1E4
:104B5000BEF1400F79D144F24D10C4F24750069097
:104B600043F23120C4F62D10059044F24760C4F69C
:104B70002D50049001208DF81C00D3E90D20D3F8AE
:104B800044C015BACDF81E509D8F00BACDF8220052
:104B900028BADD8F000CADF8260028BAB3F84050D3
:104BA000000CADF8280028BA000CADF82A009CFAD9
:104BB0008CF00B9094E8611004F1100A9AE8000759
:104BC000E4690C9010A80D950E9680E800071394E8
:104BD00018681E696933402504ACCDE900532346AB
:104BE0008DF81D10CDF83CC0CDF808E0B047054663
:104BF00020464021FDF742F8A5B3D7E90910BA6B6A
:104C0000884288BF01468A4234D90220A7F82D0085
:104C100000201CB0BDE8F08740F20621A0F82D105E
:104C20000320704740F20640A7F82D0006201CB074
:104C3000BDE8F08740F20650A7F82D0007201CB011
:104C4000BDE8F087BEF1200F85D004A840211C46A6
:104C5000FDF714F840F20620A4F82D0003201CB044
:104C6000BDE8F08740F20660A7F82D0008201CB0D0
:104C7000BDE8F08740F20630A7F82D0005201CB0F3
:104C8000BDE8F087002808BF704780B5B021FBF76A
:104C900052FC80BDB0B50D4624210446FBF74BFC09
:104CA000DDB1B5F82D00D5E909122080A86BC4E963
:104CB0000112002808BFB0BD95F8301004F10C0CAB
:104CC000A170D5F8AC106A6C6B6B8CE80F00A88FE4
:104CD000D5F83E10A083C4F81E10B0BD40F26800A5
:104CE000C2F20000406844F6D351C1F26201A0FB59
:104CF000010188097047000000284FF0010218BF29
:104D0000002901D11046704790F82D20012A11D1B9
:104D100070B58B884FF63F75A3F1C10292B2AA42DB
:104D20000CD840F20621A0F82D100322BDE87040F7
:104D30001046704704221046704700BFD1F800E0CB
:104D4000D0F8AC2096451FD1446C1EEB03024FF007
:104D5000000C4CF10005A21A7CEB0502E1D3D0F85F
:104D600000C0866804460D468A1D60467146B047FD
:104D7000A0B1A888D4F8AC1000220844C4F8AC0054
:104D8000BDE870401046704740F60611A0F82D109F
:104D90000B22BDE870401046704700BF40F206404D
:104DA000A4F82D000622BDE87040104670470000B0
:104DB00000284FF0010C18BF002901D16046704750
:104DC000002BFBD0242A3CBF0220704701220A702E
:104DD00002784FF0000C4A70428812BA120C4A80D6
:104DE000828812BA120C8A80C28812BA120CCA8047
:104DF000028912BA120C0A81428912BA120C4A8133
:104E0000027B0A73427B4A73C28912BA120CCA81AE
:104E1000026912BA0A61828A12BA120C8A82C28AA2
:104E200012BA120CCA82826912BA8A61828B12BAD1
:104E3000120C8A83C28B12BA120CCA83028C12BA69
:104E4000120C0A84408C00BA000C4884242018807C
:104E5000604670472DE9F041044600284FF00100FC
:104E600018BF002902D1BDE8F08100BF002A08BFA9
:104E7000BDE8F0810B784878012B0BD1132815D0B1
:104E8000122833D1088900283ED0496841F2042015
:104E900055E000BF49680423507000205160012193
:104EA0001370907011819172BDE8F0810889042817
:104EB00042D1887A01283FD1CD7A8889012D46BA1E
:104EC00036D1A6F201406FF47C73984234D30F467A
:104ED000204668219046FBF72EFB4FF47A70208124
:104EE000FF20207301202070A6803EE04968042343
:104EF00051600121507000201181052113709070C4
:104F00009172BDE8F08100BF41F2022010804F682D
:104F100000201646907002F10A0102F108032046B3
:104F20004FF480727760BDE8F041FFF741BF00BFEA
:104F3000022D08BF002E0DD0496841F204301080C8
:104F40000020907051600121118106219172BDE80D
:104F5000F08100BF0F46204668219046FBF7EBFA30
:104F60004FF47A702081FF2020737978022088F82E
:104F70000110796888F800000020C8F804100121A9
:104F800088F8020088F80A1088F80B50002146467D
:104F9000012D04BFA088010A707304203081002015
:104FA0003173BDE8F0810000002808BF70472DE98B
:104FB000F04F81B02DED028B00291CBF0A8C5FEAF7
:104FC000C27215D1416E4FF6FF72013134BF416696
:104FD0004FF0FF31914238BF0A46C189428441F007
:104FE0000201C181BDEC028B01B0BDE8F04F7047FA
:104FF000CB8B03F06B02012AE4D18D88002DE1D028
:10500000C26D002A18BFAA4240F0B68190F8009005
:10501000A9F10202032A80F0CB81B1F80AE0D1F8AD
:105020000C8001EE10EA0A8BF8EE410A01EE108ABC
:10503000B8EE417A91ED051A02EE102A4A8BB8EECD
:10504000415A01EE102A8A8BB1F806C004EE102AEC
:10505000428800EE10CAB8EE400AB8EE423AB8EE06
:10506000412A012AB8EE441A40F28C82013A04EE39
:10507000102A90ED0A6AB8EE444A86EE046AD0ED32
:10508000092AD0ED0C3A30EE620AF1EE042A002231
:10509000F0EE624AB0EEC00A4FF0000A00244FF072
:1050A000000B002700230025F1EEC61A0026F4EEBF
:1050B000621AF1EE10FAC8BF0122D20718BFF0EE53
:1050C000614AC3EE841AB5EE406AF1EE10FAC8BF29
:1050D000F0EE642A80EE220AD0ED0B2AB7EE086AC1
:1050E00070EEE20ADFEDAF2ADFEDAF4A0022F0EE0C
:1050F000E00AF1EEE13A20EE060AB0EE086AB4EEFC
:10510000460AF1EE10FAB5EE400AA8BF4FF0010AC8
:10511000F1EE10FADCBF4FF0FF34B0EE640AF0EEAF
:10512000624AF4EE623AF1EE10FAC8BF0122D207E9
:1051300018BFF0EE634AF5EE401AD0ED0E1AF1EE0C
:1051400010FAC1EE841AC8BFF0EE642AC0EEA20ABB
:10515000DFED962A0022F1EEE13A60EEA20AF4EECB
:10516000460AF1EE10FAF4EE400AA8BF4FF0010B28
:10517000F1EE10FAC8BF0124D0ED0D2AC8BFB0EE81
:10518000600A77EE620A9FEDFC7AF0EEE00AF4EE38
:10519000473AF1EE10FAC8BF0122F0EE472AD207D3
:1051A00018BFF0EE632AF5EE401AD0ED101AF0EEBB
:1051B000473AC1EE841AF1EE10FAC8BFF0EE623A37
:1051C000C0EEA30A0022F1EEE12AF4EE460AF1EE67
:1051D00010FAF4EE400AA8BF0127F1EE10FAC8BF9A
:1051E0000224D0ED0F3AC8BFB0EE600AF0EE470AD5
:1051F00035EE635AB0EEC55AF4EE472AF1EE10FAD6
:10520000C8BF0122D20718BFF0EE620AF5EE401ABD
:10521000D0ED121AF1EE10FAC8BFB0EE607AC1EE0E
:10522000840A85EE075A9FEDD57A0022F1EEE01A46
:1052300025EE075AB4EE465AF1EE10FAB4EE405A93
:10524000A8BF0123F1EE10FAC8BF032490ED117A34
:10525000C8BFB0EE450A33EE473AB0EEC35AB2EEDD
:10526000043AB0EE437AF4EE431AF1EE10FAC8BFF6
:105270000122D20718BFB0EE617AF5EE400AD0EDF8
:10528000140AF0EE431AC0EE840AF1EE10FAC8BF19
:10529000F0EE471A85EE215A9FEDB97A0022F1EE21
:1052A000E01A25EE075AB4EE465AF1EE10FAB4EEC3
:1052B000405AA8BF0122F1EE10FAC8BF0424D0ED75
:1052C000132AC8BFB0EE450AB0EE435A32EE622A46
:1052D000F4EE431AF1EE10FAC8BF0125ED0718BF2E
:1052E000B0EE615AD0ED161AB0EEC22A81EE844AB1
:1052F000F5EE400AF0EE430AF1EE10FAC8BFF0EE08
:10530000450A82EE202A0025B1EEC45A22EE072A71
:10531000B4EE462AF1EE10FAB4EE402AA8BF0126F8
:10532000F1EE10FAC4BF0524B0EE420A90ED152A42
:10533000B4EE435AF1EE10FAC8BF012531EE421A1D
:10534000ED07B0EEC11AB0EE432AB5EE404A18BFE1
:10535000B0EE452AF1EE10FAC8BFB0EE423A81EE47
:10536000031A4AEA4B0545EA870545EAC30343EABF
:10537000021242EA4615C8E1416E4FF6FF72013152
:1053800034BF41664FF0FF31914238BF0A46C189B0
:10539000428441F00601C181BDEC028B01B0BDE841
:1053A000F04F704700004842000000009A99993F72
:1053B000B9F1010F7FF416AE4F89CA6801EE107A79
:1053C0000E8BF8EE410A01EE102AB8EE417A91ED0B
:1053D000051A02EE106A4E8BB8EE416A01EE106AB1
:1053E0008E8BB8EE424A02EE106A4688CC88002EB8
:1053F00008BFC565751C00EE104A1FFA85FCD0ED8C
:10540000091AB8EE400AB8EE413A01EE10CAB8EEF9
:10541000415A70EE612A82EE851AD0ED0B3AB8EE51
:10542000422A70EEE34AC4EE855AD0ED0A6ADB06E2
:10543000458031EE811AD0ED0D1A30EE410A77EE3B
:10544000617A87EE858A22EE800A73EEA52AC0ED86
:105450000B2A70EEE20AD0ED0F2A64EEA00AD0ED1E
:105460000C3A76EE624AC4EE855A70EEA30AC0ED9D
:105470000C0A30EE260A80ED091A71EE880AC0ED9A
:105480000D0A37EE607AD0ED0E0AD0ED111A27EE34
:10549000877A37EE207A74EE610AC0EE853A80EDA5
:1054A0000E7A32EEA57AD0ED132A80ED0F7A36EE21
:1054B000476A90ED107A24EE866A73EE624AC4EE73
:1054C000855A36EE076A80ED106A90ED156A80ED18
:1054D0000A0A31EEA37A72EE461A81EE855A80ED01
:1054E000117A34EE474A90ED127A20EE844A34EE77
:1054F000074A80ED124A32EEA54A80ED134A33EE98
:10550000443A90ED144A24EE833A33EE043A80EDA7
:10551000143A36EE053A80ED153A32EE432A90ED14
:10552000163A21EE822A32EE032A80ED162A03D59E
:10553000C38943F00103C38109688482016129049E
:10554000C782826100F08E81B5EE401AF1EE10FA4A
:1055500040F3A0819FEDD02AB4EE421AF1EE10FA8A
:1055600080F2BA81B6EE002A31EE021ABDEEC11AFF
:1055700011EE101AB2E100BF0000FA436666663F02
:10558000CDCC4C3F90ED094AD0ED0B1A30EE440AD9
:10559000B0EEC00AB1EE044A80EE040A70EEE10AF1
:1055A0005FED801AD0ED0D2AF0EEE00AC0EEA10A00
:1055B00090ED0F6A37EE627A5FED111AB0EEC77A9E
:1055C00087EE217A35EE465AB0EEC55A85EE215A5D
:1055D000B7EE084A20EE040AB0EE084ADFEDE53ADD
:1055E000B4EE440AF1EE10FA4FF00002B5EE400AB4
:1055F00060EEA30AA8BF0122F1EE10FA4FF00004FA
:10560000F4EE440AD8BF4FF0FF34DFEDD92AD8BFFB
:10561000B0EE620AF1EE10FA4FF00003F4EE400A29
:10562000A8BF0123F1EE10FAC4BF0124B0EE600A56
:10563000B4EE447ADFEDD00A42EA4302F1EE10FA0A
:105640004FF00003B4EE407AA8BF0123F1EE10FA48
:10565000C8BF022490ED116A25EE205AB4EE445AD8
:1056600042EA830233EE463AC8BFB0EE470AF1EE93
:1056700010FA4FF00003B4EE405AB0EEC33AB2EE67
:10568000046AA8BF0123F1EE10FAC4BF0324B0EEF0
:10569000450A90ED137A83EE063A32EE472AB0EED1
:1056A000C22A82EE062A9FEDB55A42EAC3020023BF
:1056B000002523EE053AB4EE443AF1EE10FAA8BF05
:1056C000012390ED157AB4EE403A22EE052A31EE30
:1056D000471AF1EE10FAB4EE442A42EA0312B0EE91
:1056E000C11AC4BF0424B0EE430AF1EE10FAA8BFF9
:1056F0000125B4EE402A81EE061A42EA4515F1EE84
:1057000010FAC4BF0524B0EE420A9FED9C2A9FED1B
:105710009C3A21EE022AB0EE081AB4EE412AF1EECC
:1057200010FA4FF00006B4EE402AA8BF0126F1EEB1
:1057300010FAC8BF06240968C8BFB0EE420A20EEBE
:10574000032AB5EE402A4FF6FF73002245EA86157C
:10575000F1EE10FA0161A0F814C0A0F816E0C0F84C
:1057600018800584047310DD9FED864A4FF6FF72A2
:10577000B4EE442AF1EE10FA07DAB6EE004A32EE41
:10578000042ABDEEC22A12EE102AB1EE082A80EEDB
:10579000024A24EE034AB4EE434AF1EE10FAC8BFBF
:1057A000B0EE434AB5EE404AF1EE10FA42810FDD09
:1057B0009FED743AB4EE434AF1EE10FA09DAB6EE10
:1057C000003A34EE033ABDEEC33A13EE103A00E06D
:1057D0000023C189B4EE410AC3F57A72F1EE10FAE2
:1057E000C38002811ADAB4EE420A21F01001F1EE10
:1057F00010FAC18124DAB0EE001AB4EE410A002199
:10580000F1EE10FA80F8601034DA90F86110FF2998
:105810004CD1A9F10301012953D954E0B4EE420A55
:1058200041F01001F1EE10FAC18109DA90F8602020
:105830000021FF2A80F8611020D1FF2123E000BF62
:1058400090F860200021FF2A80F8611002D1FF212A
:1058500004E000BF511C80F86010FAB1042202700D
:1058600032E000BF002181838288C1839445FFF428
:10587000B9AB63E080F8611026E000BF511C022A3A
:1058800080F8601020D3B9F1040F1CBF032202700E
:105890001AE000BF002121E000FF7F47B9F1020FAD
:1058A00004BF0321017001210EE000BF4A1C04293E
:1058B0004FF0000180F8612006D3A9F10302022A0B
:1058C00002D20221017000214173BDEC028B01B0B4
:1058D000BDE8F04F704700BF4FF6FF71B1EE041AFC
:1058E0008183F6B14FF0FF3111FA85F102EE101A03
:1058F000B8EE422A80EE020AB5EE400AF1EE10FA46
:105900000FDDB1EEC00AB4EE410AF1EE10FA08DD87
:105910009FED1C1AB4EE410AF1EE10FAB0EE401AF7
:105920001EDAB6EE000A31EE000ABDEEC00A10EE35
:10593000101A8288C1839445FFF454ABC2890221B6
:10594000017042F00801C1814FF07A71C0F8061071
:10595000FF210173BDEC028B01B0BDE8F04F704731
:105960004FF6FF718288C1839445FFF43BABE5E7B6
:10597000000000009A99993F6666663FCDCC4C3F87
:1059800000007A4400FF7F47002808BF704710B529
:1059900068210446FAF7CFFD4FF47A702081FF208A
:1059A0002073BDE810407047F0B581B071B191E847
:1059B0000C5001F11007F0CF096A80E80C5000F19B
:1059C000100270C2C0E9077101B0F0BD2421FAF7DE
:1059D000B2FD01B0F0BD00002DE9F04FADF5177D2F
:1059E0000E46A09D04466AA8402199469246FAF7C1
:1059F000A2FD0DF5B47840464021FAF79CFD0DF567
:105A0000947B58464021FAF796FD0020CDE94800E6
:105A1000CDE94600CDE94400CDE94200CDE94000A2
:105A2000CDE93E00CDE93C00CDE93A00CDE93600B4
:105A300002A87021FAF77FFD002D00F01C846CB9DC
:105A400066B10020E861A86168612861E860A8602B
:105A5000686028600DF5177DBDE8F08F4FF23A556C
:105A60004EF2676C4DF6AB17CAF24F55C6F6092CCD
:105A7000412EC1F68377CDE900A947D37AA800F17A
:105A8000200948464821E246FAF755FD4AF6856066
:105A9000CBF667307B904FF27230C3F66E40CDE9A3
:105AA0007C0545F27F20C5F20E107E9046F68C00F4
:105AB000C9F60530CDE97F074CF61950C5F6E03040
:105AC00081900020CDF8E8A19590949034B37AAFFE
:105AD0000025CDE9946002E05544B5421ED2C0F1E4
